:100000000C9434000C9451000C9451000C94510049
:100010000C9451000C9451000C9451000C9451001C
:100020000C9451000C9451000C9451000C9451000C
:100030000C9451000C9451000C9451000C945100FC
:100040000C9451000C9451000C9451000C945100EC
:100050000C9451000C9451000C9451000C945100DC
:100060000C9451000C94510011241FBECFEFD8E026
:10007000DEBFCDBF11E0A0E0B1E0E0E7F7E002C0F5
:1000800005900D92AE32B107D9F721E0AEE2B1E0B2
:1000900001C01D92A233B207E1F70E9409030C943C
:1000A000B6030C9400000F931F93CF93DF93EB01E3
:1000B000009709F45EC081309105D1F0019609F0F6
:1000C000ACC04091200150912101609122017091BA
:1000D000230180912E0190912F01A0913001B091C8
:1000E00031018A019B01082B192B2A2B3B2B5BC06A
:1000F0008091200190912101A0912201B0912301D2
:1001000080959095A095B09540912E0150912F012A
:1001100060913001709131018C019D010423152300
:100120002623372300932E0110932F0120933001B3
:1001300030933101A8015527612F70E0822F90E0A4
:100140000E94D50240912401509125016091260121
:100150007091270180912E0190912F01A091300183
:10016000B09131018A019B01082B192B2A2B3B2BC3
:1001700044C08091200190912101A0912201B09171
:10018000230180959095A095B09540912E015091B6
:100190002F0160913001709131018C019D01042388
:1001A00015232623372300932E0110932F0120932C
:1001B000300130933101A8015527612F70E0822F63
:1001C00090E00E94D5028091240190912501A09198
:1001D0002601B091270180959095A095B09540910A
:1001E0002E0150912F0160913001709131018C01ED
:1001F0009D01042315232623372300932E011093FA
:100200002F012093300130933101A8015527612F30
:1002100070E0822F90E00E94D502209709F45EC022
:10022000C130D105D1F0219609F0B0C0409118013C
:100230005091190160911A0170911B0180912E015A
:1002400090912F01A0913001B09131018A019B0161
:10025000082B192B2A2B3B2B5BC080911801909106
:100260001901A0911A01B0911B0180959095A0955C
:10027000B09540912E0150912F0160913001709105
:1002800031018C019D01042315232623372300937C
:100290002E0110932F012093300130933101A801DA
:1002A0005527612F70E0822F90E00E94D502409187
:1002B0001C0150911D0160911E0170911F018091E0
:1002C0002E0190912F01A0913001B09131018A014E
:1002D0009B01082B192B2A2B3B2B44C08091180122
:1002E00090911901A0911A01B0911B0180959095F0
:1002F000A095B09540912E0150912F016091300151
:10030000709131018C019D0104231523262337238D
:1003100000932E0110932F0120933001309331016F
:10032000A8015527612F70E0822F90E00E94D5022E
:1003300080911C0190911D01A0911E01B0911F019F
:1003400080959095A095B09540912E0150912F01E8
:1003500060913001709131018C019D0104231523BE
:100360002623372300932E0110932F012093300171
:1003700030933101A8015527612F70E0822F90E062
:10038000DF91CF911F910F910C94D502DF91CF9106
:100390001F910F910895BC0184E690E00E948E03A6
:1003A00080E090E08617970744F4EFE9FFE031978B
:1003B000F1F700C000000196F5CF0895CF93DF93C9
:1003C000EC0161E070E081E090E00E945300CE011A
:1003D0000E94CB0161E070E08FEF9FEF0E9453001D
:1003E000CE010E94CB016FEF7FEF8FEF9FEF0E9456
:1003F0005300CE010E94CB016FEF7FEF81E090E0D0
:100400000E945300CE01DF91CF910C94CB01CF938A
:10041000DF93EC0161E070E081E090E00E94530026
:10042000CE010E94CB016FEF7FEF81E090E00E9450
:100430005300CE010E94CB016FEF7FEF8FEF9FEF54
:100440000E945300CE010E94CB0161E070E08FEF6B
:100450009FEF0E945300CE01DF91CF910C94CB010E
:10046000EF92FF920F931F93E4B1F82FF095EF23D3
:10047000E4B9E5B1E22BE5B9E7B1F62FF095EF234A
:10048000E7B9E8B1E02BE8B9EAB1F42FF095EF2332
:10049000EAB9EBB1EE29EBB980932C0190932D01D1
:1004A000209326013093270160932A0170932B013A
:1004B00000932401109325014093280150932901B2
:1004C000E0922201F09223011F910F91FF90EF9093
:1004D000089524B1282B24B927B1262B27B92AB196
:1004E000242B2AB9809320019093210160931E014F
:1004F00070931F0140931C0150931D010895CF93E9
:10050000DF93EC01DB01FA011982188211961C922B
:100510001E9211821082809128019091290197FDED
:1005200013C023B1822F90E020912C0130912D0136
:10053000282339233983288380912601909127012C
:10054000282739273983288320912A0130912B01CC
:1005500037FD0FC086B190E08223932311969C93C0
:100560008E932091240130912501822793278D932A
:100570009C9380912C0190912D0197FD13C089B11E
:10058000282F30E080912801909129018223932324
:100590009183808320912201309123018227932728
:1005A00091838083DF91CF91089520912001309134
:1005B000210137FD0BC095B12823292B25B995B111
:1005C000209120012095822B892385B980911E01DD
:1005D00090911F0197FD0BC098B18623892B88B994
:1005E00088B190911E019095692B682368B980911C
:1005F0001C0190911D0197FD0BC09BB18423892B99
:100600008BB98BB190911C019095492B48234BB924
:100610000895CF93DF9300D000D000D0CDB7DEB7E0
:1006200040EF50E060E070E080E290E00E946902FC
:100630004CE0E42EF12C00E010E020E030E04CE053
:1006400050E060E070E080E090E00E943002AE0197
:100650004F5F5F4FBE016D5F7F4FCE0105960E94D9
:100660007F028D819E81092E000CAA0BBB0BBA2F35
:10067000A92F982F88274B815C81052E000C660BD3
:10068000770B842B952BA62BB72BBA2FA92F982F3E
:10069000882749815A81052E000C660B770B842B25
:1006A000952BA62BB72B892B8A2B8B2B39F00D3949
:1006B0008FEF180734F00150110903C0011511051F
:1006C00031F088279927801B910B0E9407024091E7
:1006D00018015091190160911A0170911B018091CC
:1006E0002E0190912F01A0913001B09131016A014A
:1006F0007B01C826D926EA26FB26C0922E01D0927D
:100700002F01E0923001F0923101A60155276D2DA5
:1007100070E08E2D90E00E94D50299CF97FB072EB6
:1007200016F4009407D077FD09D00E94A20307FCBD
:1007300005D03EF4909581959F4F089570956195F1
:100740007F4F0895AA1BBB1B51E107C0AA1FBB1F07
:10075000A617B70710F0A61BB70B881F991F5A954D
:10076000A9F780959095BC01CD010895F894FFCF2D
:1007700008000000040000008000000040000000AD
:10078000200000001000000000002000FFFFFFFF1D
:0E079000FFFFFFFFFFFFFFFFFFFFFFFFFFFF69
:00000001FF
