:100000000C943A000C944C000C944C000C944C0052
:100010000C944C000C944C000C944C000C944C0030
:100020000C944C000C944C000C944C000C944C0020
:100030000C944C000C944C000C944C000C947902E1
:100040000C944C000C944C000C944C000C944C0000
:100050000C944C000C944C000C944C000C944C00F0
:100060000C944C000C944C000C944C000C944C00E0
:100070000C944C0011241FBECFEFD2E0DEBFCDBFE9
:1000800021E0A0E0B1E001C01D92A830B207E1F785
:100090000E94C2020C9411030C940000CF93DF93D2
:1000A0001F92CDB7DEB769835981FC01408121E001
:1000B00030E001C0220F5A95EAF7242B20830F90DD
:1000C000DF91CF910895CF93DF931F92CDB7DEB725
:1000D00069835981FC01408121E030E002C0220F98
:1000E000331F5A95E2F720953095242320830F90F3
:1000F000DF91CF910895CF93DF931F92CDB7DEB7F5
:100100006983452B61F05981FC01408121E030E099
:1001100001C0220F5A95EAF7242B208303C069817E
:100120000E9463000F90DF91CF91089585E1809345
:10013000D0008FE08093D100E1E6F0E080E880839A
:100140001082209A219A229A239A249A259A269AF2
:10015000289829982A982B982C982D982E9860E00A
:1001600074E284EF90E00E949E020E94B7026093C6
:100170000401709305018093060190930701509A42
:10018000519A529A539A0895CF92DF92EF92FF922A
:100190000E94B7026B01770FEE08FF080E94B702BA
:1001A000DC01CB018C199D09AE09BF098C3291404D
:1001B000A105B10598F40E94B702DC01CB018C19AE
:1001C0009D09AE09BF0986399105A105B10518F44D
:1001D000299A2E9AE3CF29982E98E0CFFF90EF909E
:1001E000DF90CF900895CF92DF92EF92FF920E941E
:1001F000B7026B01770FEE08FF080E94B702DC011F
:10020000CB018C199D09AE09BF098C329140A10523
:10021000B10598F40E94B702DC01CB018C199D094D
:10022000AE09BF0986399105A105B10518F42A9ACE
:100230002D9AE3CF2A982D98E0CFFF90EF90DF9092
:10024000CF9008952C9A08950F931F93289A2B9A74
:100250000E94B7020091040110910501209106014E
:1002600030910701DC01CB01801B910BA20BB30B7A
:10027000803D9740A105B10510F40E94C4000E9482
:10028000B7020091040110910501209106013091FF
:100290000701DC01CB01801B910BA20BB30B813654
:1002A0009940A105B105B8F00E94B7020091040180
:1002B000109105012091060130910701DC01CB016D
:1002C000801B910BA20BB30B80319E40A105B105A1
:1002D00010F40E94C4000E94B70200910401109122
:1002E00005012091060130910701DC01CB01801B43
:1002F000910BA20BB30B813A9F40A105B105B8F059
:100300000E94B7020091040110910501209106019D
:1003100030910701DC01CB01801B910BA20BB30BC9
:1003200088389341A105B10510F40E9422012C9850
:100330000E94B7020091040110910501209106016D
:1003400030910701DC01CB01801B910BA20BB30B99
:1003500081379741A105B105B8F00E94B70200911D
:100360000401109105012091060130910701DC0183
:10037000CB01801B910BA20BB30B80349F41A105D5
:10038000B10510F40E94F30028982B981F910F914B
:100390000895009751F08130910521F0019639F4CC
:1003A000589A04C05898599A02C05898599861159B
:1003B000710559F06130710529F06F3F7F4F39F4B5
:1003C0005A9A04C05A985B9A08955A985B9808956F
:1003D000BC0184E690E00E94C70280E090E08617AE
:1003E000970744F4EFE9FFE03197F1F700C0000010
:1003F0000196F5CF0895CF93DF93EC0161E070E0B3
:1004000081E090E00E94C901CE010E94E80161E014
:1004100070E08FEF9FEF0E94C901CE010E94E801BA
:100420006FEF7FEF8FEF9FEF0E94C901CE010E9417
:10043000E8016FEF7FEF81E090E00E94C901CE01FB
:10044000DF91CF910C94E801CF93DF93EC0161E051
:1004500070E081E090E00E94C901CE010E94E801B5
:100460006FEF7FEF81E090E00E94C901CE010E9412
:10047000E8016FEF7FEF8FEF9FEF0E94C901CE0180
:100480000E94E80161E070E08FEF9FEF0E94C901D8
:10049000CE01DF91CF910C94E8010F931F938AE076
:1004A00090E00E9424020E94B70200910401109182
:1004B00005012091060130910701DC01CB01801B71
:1004C000910BA20BB30B89329342A105B10568F0E1
:1004D0000E94B702609304017093050180930601A6
:1004E000909307011F910F9108951F910F910C9404
:1004F00024011F920F920FB60F9211248F939F9396
:10050000AF93BF938091000190910101A0910201EE
:10051000B09103010196A11DB11D8093000190933C
:100520000101A0930201B0930301BF91AF919F918C
:100530008F910F900FBE0F901F90189520E43FE110
:1005400040E050E00E94DB02E1E8F0E080818A6058
:100550008083BB27A52F942F832F8093890020931E
:100560008800EFE6F0E08081826080830895F8944F
:10057000609100017091010180910201909103014D
:10058000789408950E9496000E944D02FDCF97FB3B
:10059000072E16F4009407D077FD09D00E94FD02C3
:1005A00007FC05D03EF4909581959F4F0895709576
:1005B00061957F4F0895A1E21A2EAA1BBB1BFD0176
:1005C0000DC0AA1FBB1FEE1FFF1FA217B307E40732
:1005D000F50720F0A21BB30BE40BF50B661F771F8A
:1005E000881F991F1A9469F760957095809590956A
:1005F0009B01AC01BD01CF010895AA1BBB1B51E1BA
:1006000007C0AA1FBB1FA617B70710F0A61BB70B82
:10061000881F991F5A95A9F780959095BC01CD0127
:060620000895F894FFCFDD
:00000001FF
